:090CC600120C03D2A17F057E008F
:100CCF00E4FDFCC3ED9FEE6480F8EC648098501552
:100CDF00E4FBFA0BBB00010AEB64644A70F50DBD2F
:050CEF0000010C80DE95
:010CF40022DD
:100C0300EF30E004D2008002C200EF30E104D200F2
:100C13008002C200EF30E204D2008002C200EF3053
:100C2300E304D2008002C200EF30E404D2A28002C7
:100C3300C2A2EF30E504D2A38002C2A3EF30E604E0
:100C4300D2A48002C2A4EF30E703D2A522C2A52218
:070E1B007E00120CCF7F30B6
:080E2200C2A0120CC6C2A122FD
:050E5C007F01020E22DF
:100DEE008F29A905E529B40105E924808008E529A4
:0B0DFE00B40207E924C0FF120E2222FD
:100D7600E4FF120C03C2A07FC8120E1B7F32120EB4
:100D86001B7F6E120E1B7F38120E227F0C120E2254
:0A0D96007F01120E227F06020E22DA
:080E5400D2A0120CC6C2A122BB
:060CF5008B248A258926EC
:100CFB00E4F527F528AB24AA25A926852882852784
:100D0B0083120A7CFF600D120E540528E52870E54E
:040D1B00052780E147
:010D1F0022B1
:050E61007F1C020E22BF
:050E66007F18020E22BE
:100DA000EF30E004D2A28002C2A2EF30E104D2A36D
:100DB0008002C2A3EF30E204D2A48002C2A4EF30CA
:080DC000E303D2A522C2A52223
:070E09007E00120CCF7F03F5
:0B0E1000C2A0120DA0120CC9C2A1224A
:0A0E3600E4FF120E107F01020E10FF
:040C53008F19A90547
:100C5700E519B4010FE92480FFF51A7804A2E71318
:100C6700D8FB8012E519B4021EE924C0FFF51A78F3
:100C770004A2E713D8FBF51BEF540FF51CAF1B12AB
:070C87000E10AF1C120E104D
:010C8E002243
:100C8F00E4FF120DA07FC8120E097F32120E097FEA
:100C9F006E120E097F02120E107F02120E107F08C5
:100CAF00120E10E4FF120E107F0C120E10E4FF1242
:070CBF000E107F06020E106B
:020D2000AE071C
:100D2200EE540FF9EE54F0FFD2A07804A2E713D8E4
:100D3200FBFF120DA0120CC9C2A1AF01120DA0D26D
:080D4200A17F05120CCFC2A134
:010D4A002286
:060D4B008B198A1A891BB6
:100D5100E4F51CF51DAB19AA1AA91B851D82851C7A
:100D610083120A7CFF600D120D20051DE51D70E543
:040D7100051C80E1FC
:010D7500225B
:0A0E40007F01120E107F0C020E104D
:0A0E4A007F01120E107F08020E1047
:0A0B68008E198F1A8B1B8A1C891D41
:100B7200E4F51EF51FF520F521851922851A23AE0D
:100B820019AF1A7C007D0A120ADDED2430FFAB1B7F
:100B9200AA1CA91D051FE51FAC1E7002051E14F537
:100BA200828C83EF120ABBAE19AF1A7C007D0A1247
:100BB2000ADD8E198F1AD3EF9400EE648094805070
:100BC200BED3E5239409E52264809480AB1BAA1C62
:100BD200A91D401F120A63FF900001120A7C120A2B
:100BE200A9AB1BAA1CA91D900001EF120ABB900021
:100BF200028003900001E4120ABBAB1BAA1CA91DD0
:010C020022CF
:100DC800E4FDFCC3ED9FEE6480F8EC648098501558
:100DD800E4FBFA0BBB00010AEB64644A70F50DBD35
:050DE80000010C80DE9B
:010DED0022E3
:10080000E4F508F509F50AF50BF50CF50D120C8F5A
:1008100020B0110509E509700205087B007A00790E
:100820000EFF802920B12BE509150970021508C3B8
:10083000E50864809480500DE4F508F509750E30E4
:10084000750F2080CB7B007A00790EAF09AE0802CD
:10085000090B20B22D050BE50B7002050AD3943B62
:10086000E50A64809480400D751130751220E4F51E
:100870000AF50B809E7B007A007911AF0BAE0A025D
:10088000090B20B32BE50B150B7002150AC3E50A03
:1008900064809480500EE4F50AF50B7511307512E2
:1008A000300208107B007A007911AF0BAE0A805B32
:1008B00020B42C050DE50D7002050CD3943BE50C1E
:1008C00064809480400D751430751520E4F50CF5A6
:1008D0000D80827B007A007914AF0DAE0C802C2045
:1008E000B536E50D150D7002150CC3E50C6480944A
:1008F00080500EE4F50CF50D7514307515300208B6
:10090000107B007A007914AF0DAE0C120B687FF4E7
:100910007E01120DC8020A15C29030B603020810FB
:10092000E4F517F51820B709F517751801D290806E
:1009300007E4F517F518C290D3E50D9400E50C64B3
:100940008094804011E50D150D7002150C7FE87E36
:1009500003120DC88068E50D450C7024D3E50B9497
:1009600000E50A6480948040177FE87E03120DC87A
:10097000E50B150B7002150A750C00750D3B803EDA
:10098000E50B450A701DD3E5099400E508648094E1
:10099000804010E509150970021508750A00750BED
:1009A0003B801BE50945087015E50B450A700FE50E
:1009B0000D450C7009E517451824FFB39290C3E567
:1009C00009940AE508648094805003750F20C3E5FC
:1009D0000B940AE50A648094805003751220C3E5E5
:1009E0000D940AE50C6480948050037515207B00FB
:1009F0007A00790EAF09AE08120B687B007A007995
:100A000011AF0BAE0A120B687B007A007914AF0DA0
:050A1000AE0C120B68A2
:100A1500120E367D017F01120C537B007A00790E90
:100A2500120D4B7D037F01120C537F3A120D207D71
:100A3500047F01120C537B007A007911120D4B7D56
:100A4500067F01120C537F3A120D207D077F01129C
:0E0A55000C537B007A007914120D4B0208102E
:03000000020E2AC3
:0C0E2A00787FE4F6D8FD758129020800ED
:100A6300BB010689828A83E0225002E722BBFE0291
:090A7300E32289828A83E49322C4
:100A7C00BB010CE58229F582E5833AF583E022502F
:100A8C0006E92582F8E622BBFE06E92582F8E22279
:0D0A9C00E58229F582E5833AF583E4932293
:100AA900BB010689828A83F0225002F722BBFE012C
:020AB900F32226
:100ABB00F8BB010DE58229F582E5833AF583E8F071
:100ACB00225006E92582C8F622BBFE05E92582C81D
:020ADB00F22205
:100ADD00C2D5EC30E709B2D5E4C39DFDE49CFCEE34
:100AED0030E715B2D5E4C39FFFE49EFE120B13C38E
:100AFD00E49DFDE49CFC8003120B1330D507C3E489
:060B0D009FFFE49EFE22A2
:100B1300BC000BBE0029EF8DF084FFADF022E4CCC6
:100B2300F875F008EF2FFFEE33FEEC33FCEE9DEC8F
:100B3300984005FCEE9DFE0FD5F0E9E4CEFD22EDD5
:100B4300F8F5F0EE8420D21CFEADF075F008EF2F1F
:100B5300FFED33FD4007985006D5F0F222C398FD10
:050B63000FD5F0EA22AD
:00000001FF
