:0C0E300054696D65207377697463680075
:090CD200120C08D2817F057E009E
:100CDB00E4FDFCC3ED9FEE6480F8EC648098501546
:100CEB00E4FBFA0BBB00010AEB64644A70F50DBD23
:050CFB0000010C80DE89
:010D000022D0
:100C0800EF30E004D2008002C200EF30E104D200ED
:100C18008002C200EF30E204D2008002C200EF304E
:100C2800E304D2008002C200EF30E404D2A48002C0
:100C3800C2A4EF30E504D2A58002C2A5EF30E604D5
:100C4800D2A68002C2A6EF30E703D2A722C2A7220B
:070E21007E00120CDB7F30A4
:080E2800C280120CD2C281222B
:050E6E007F01020E28C7
:100DF4008F29A905E529B40105E924808008E5299E
:0B0E0400B40207E924C0FF120E2822F0
:100D8200E4FF120C08C2807FC8120E217F32120EBD
:100D9200217F6E120E217F38120E287F0C120E2830
:0A0DA2007F01120E287F06020E28C2
:080E6600D280120CD2C28122DD
:060D01008B248A258926DF
:100D0700E4F527F528AB24AA25A926852882852777
:100D170083120A81FF600D120E660528E52870E52B
:040D2700052780E13B
:010D2B0022A5
:050E73007F1C020E28A7
:050E78007F18020E28A6
:100DAC00EF30E004D2A48002C2A4EF30E104D2A55B
:100DBC008002C2A5EF30E204D2A68002C2A6EF30B8
:080DCC00E303D2A722C2A72213
:070E0F007E00120CDB7F03E3
:0B0E1600C280120DAC120CD5C281226C
:0A0E4800E4FF120E167F01020E16E1
:070C5800120E487D017F012F
:040C5F008F19A9053B
:100C6300E519B4010FE92480FFF51A7804A2E7130C
:100C7300D8FB8012E519B4021EE924C0FFF51A78E7
:100C830004A2E713D8FBF51BEF540FF51CAF1B129F
:070C93000E16AF1C120E1635
:010C9A002237
:100C9B00E4FF120DAC7FC8120E0F7F32120E0F7FC6
:100CAB006E120E0F7F02120E167F02120E167F08A7
:100CBB00120E16E4FF120E167F0C120E16E4FF1224
:070CCB000E167F06020E1653
:020D2C00AE0710
:100D2E00EE540FF9EE54F0FFD2807804A2E713D8F8
:100D3E00FBFF120DAC120CD5C281AF01120DACD25D
:080D4E00817F05120CDBC2815C
:010D5600227A
:060D57008B198A1A891BAA
:100D5D00E4F51CF51DAB19AA1AA91B851D82851C6E
:100D6D0083120A81FF600D120D2C051DE51D70E526
:040D7D00051C80E1F0
:010D8100224F
:0A0E52007F01120E167F0C020E162F
:0A0E5C007F01120E167F08020E1629
:0A0B6D008E198F1A8B1B8A1C891D3C
:100B7700E4F51EF51FF520F521851922851A23AE08
:100B870019AF1A7C007D0A120AE2ED2430FFAB1B75
:100B9700AA1CA91D051FE51FAC1E7002051E14F532
:100BA700828C83EF120AC0AE19AF1A7C007D0A123D
:100BB7000AE28E198F1AD3EF9400EE648094805066
:100BC700BED3E5239409E52264809480AB1BAA1C5D
:100BD700A91D401F120A68FF900001120A81120A1C
:100BE700AEAB1BAA1CA91D900001EF120AC0900012
:100BF700028003900001E4120AC0AB1BAA1CA91DC6
:010C070022CA
:100DD400E4FDFCC3ED9FEC9E5015E4FBFA0BBB0055
:0F0DE400010ABA04F8BBFBF50DBD00010C80E459
:010DF30022DD
:10080000E4F508F509F50AF50BF50CF50D120C9B4E
:10081000120C587BFF7A0E7930020A6220B0110563
:1008200009E509700205087B007A00790EFF80292E
:1008300020B12BE509150970021508C3E50864808D
:100840009480500DE4F508F509750E30750F208081
:10085000CB7B007A00790EAF09AE0802091720B2EF
:100860002D050BE50B7002050AD3943BE50A648065
:100870009480400D751130751220E4F50AF50B8057
:100880009E7B007A007911AF0BAE0A02091720B3E4
:100890002BE50B150B7002150AC3E50A64809480E2
:1008A000500EE4F50AF50B75113075123002081C74
:1008B0007B007A007911AF0BAE0A805B20B42C0567
:1008C0000DE50D7002050CD3943BE50C648094801B
:1008D000400D751430751520E4F50CF50D80827B04
:1008E000007A007914AF0DAE0C802C20B536E50DE2
:1008F000150D7002150CC3E50C64809480500EE455
:10090000F50CF50D75143075153002081C7B007A56
:10091000007914AF0DAE0C120B6D7FF47E01120D39
:0C092000D4020A21C29030B60302081C69
:10092C00E4F517F51820B709F517751801D2908062
:10093C0007E4F517F518C290D3E50D9400E50C64A7
:10094C008094804011E50D150D7002150C7FE87E2A
:10095C0003120DD48068E50D450C7024D3E50B947F
:10096C0000E50A6480948040177FE87E03120DD462
:10097C00E50B150B7002150A750C00750D3B803ECE
:10098C00E50B450A701DD3E5099400E508648094D5
:10099C00804010E509150970021508750A00750BE1
:1009AC003B801BE50945087015E50B450A700FE502
:1009BC000D450C7009E517451824FFB39290C3E55B
:1009CC0009940AE508648094805003750F20C3E5F0
:1009DC000B940AE50A648094805003751220C3E5D9
:1009EC000D940AE50C6480948050037515207B00EF
:1009FC007A00790EAF09AE08120B6D7B007A007984
:100A0C0011AF0BAE0A120B6D7B007A007914AF0D8F
:050A1C00AE0C120B6D91
:100A2100120C587B007A00790E120D577D037F015D
:100A3100120C5F7F3A120D2C7D047F01120C5F7B3B
:100A4100007A007911120D577D067F01120C5F7F2C
:100A51003A120D2C7D077F01120C5F7B007A007921
:070A610014120D5702081CDE
:03000000020E3CB1
:0C0E3C00787FE4F6D8FD758129020800DB
:100A6800BB010689828A83E0225002E722BBFE028C
:090A7800E32289828A83E49322BF
:100A8100BB010CE58229F582E5833AF583E022502A
:100A910006E92582F8E622BBFE06E92582F8E22274
:0D0AA100E58229F582E5833AF583E493228E
:100AAE00BB010689828A83F0225002F722BBFE0127
:020ABE00F32221
:100AC000F8BB010DE58229F582E5833AF583E8F06C
:100AD000225006E92582C8F622BBFE05E92582C818
:020AE000F22200
:100AE200C2D5EC30E709B2D5E4C39DFDE49CFCEE2F
:100AF20030E715B2D5E4C39FFFE49EFE120B18C384
:100B0200E49DFDE49CFC8003120B1830D507C3E47E
:060B12009FFFE49EFE229D
:100B1800BC000BBE0029EF8DF084FFADF022E4CCC1
:100B2800F875F008EF2FFFEE33FEEC33FCEE9DEC8A
:100B3800984005FCEE9DFE0FD5F0E9E4CEFD22EDD0
:100B4800F8F5F0EE8420D21CFEADF075F008EF2F1A
:100B5800FFED33FD4007985006D5F0F222C398FD0B
:050B68000FD5F0EA22A8
:00000001FF
