:100E890054696D6520737769746368004279204DF0
:0A0E99004D4B006F6666006F6E009F
:090D6C00120C5FD2817F057E00AC
:100D7500E4FDFCC3ED9FEE6480F8EC6480985015AB
:100D8500E4FBFA0BBB00010AEB64644A70F50DBD88
:050D950000010C80DEEE
:010D9A002236
:100C5F00EF30E004D2008002C200EF30E104D20096
:100C6F008002C200EF30E204D2008002C200EF30F7
:100C7F00E304D2008002C200EF30E404D2A4800269
:100C8F00C2A4EF30E504D2A58002C2A5EF30E6047E
:100C9F00D2A68002C2A6EF30E703D2A722C2A722B4
:070EB5007E00120D757F3075
:080EBC00C280120D6CC28122FC
:050EF6007F01020EBCAB
:100E6E008F2BA905E52BB40105E924808008E52B1D
:0B0E7E00B40207E924C0FF120EBC22E2
:100E1C00E4FF120C5FC2807FC8120EB57F32120E37
:100E2C00B57F6E120EB57F38120EBC7F0C120EBC45
:0A0E3C007F01120EBC7F06020EBCFF
:080EEE00D280120D6CC28122BA
:060D9B008B268A2789283F
:100DA100E4F529F52AAB26AA27A928852A828529CF
:100DB10083120ACEFF600D120EEE052AE52A70E5B8
:040DC100052980E19F
:010DC500220B
:050EFB007F1C020EBC8B
:050F00007F18020EBC89
:100E4600EF30E004D2A48002C2A4EF30E104D2A5C0
:100E56008002C2A5EF30E204D2A68002C2A6EF301D
:080E6600E303D2A722C2A72278
:070EA3007E00120D757F03B4
:0B0EAA00C280120E46120D6FC28122A2
:0A0ED000E4FF120EAA7F01020EAA31
:070CAF00120ED07D017F0150
:040CB6008F1BA905E2
:100CBA00E51BB4010FE92480FFF51C7804A2E713B1
:100CCA00D8FB8012E51BB4021EE924C0FFF51C788C
:100CDA0004A2E713D8FBF51DEF540FF51EAF1D1242
:070CEA000EAAAF1E120EAAB4
:010CF10022E0
:100D3500E4FF120E467FC8120EA37F32120EA37F68
:100D45006E120EA37F02120EAA7F02120EAA7F0850
:100D5500120EAAE4FF120EAA7F0C120EAAE4FF12CD
:070D65000EAA7F06020EAA90
:020DC600AE0776
:100DC800EE540FF9EE54F0FFD2807804A2E713D85E
:100DD800FBFF120E46120D6FC281AF01120E46D2F2
:080DE800817F05120D75C28127
:010DF00022E0
:060DF1008B1B8A1C891D0A
:100DF700E4F51EF51FAB1BAA1CA91D851F82851EC6
:100E070083120ACEFF600D120DC6051FE51F70E5A0
:040E1700051E80E153
:010E1B0022B4
:0A0EDA007F01120EAA7F0C020EAA7F
:0A0EE4007F01120EAA7F08020EAA79
:0A0BBA007B007A007913AF0BAE0A3E
:0A0BC4008E1B8F1C8B1D8A1E891FDB
:100BCE00E4F520F521F522F523851B24851C25AEA1
:100BDE001BAF1C7C007D0A120B2FED2430FFAB1DCA
:100BEE00AA1EA91F0521E521AC207002052014F5CF
:100BFE00828C83EF120B0DAE1BAF1C7C007D0A1294
:100C0E000B2F8E1B8F1CD3EF9400EE6480948050BC
:100C1E00BED3E5259409E52464809480AB1DAA1EFD
:100C2E00A91F401F120AB5FF900001120ACE120A28
:100C3E00FBAB1DAA1EA91F900001EF120B0D900019
:100C4E00028003900001E4120B0DAB1DAA1EA91F1A
:010C5E002273
:040CF200AF0FAE0E84
:100CF600E4FDFCC3ED9FEE6480F8EC648098502E12
:100D0600E4F51BF51C758901758CFC758A66D28C19
:100D1600308DFDC28CC28D051CE51C7002051BB40E
:070D2600E8E3E51BB403DE66
:070D2D000DBD00010C80C5A3
:010D3400229C
:10080000E4F508F509F50AF50BF50CF50DF50E758F
:100810000F01120D35120CAF7BFF7A0E7989120D84
:10082000F17D017F02120CB67BFF7A0E7995120DD5
:10083000F120B01D0509E509700205087B007A006A
:100840007910FFAE08120BC420B603020A4A02094F
:100850005220B134E509150970021508C3E5086492
:10086000809480500DE4F508F5097510307511205D
:1008700080BF7B007A007910AF09AE08120BC4204C
:10088000B603020A4A02095220B22C050BE50B708E
:1008900002050AD3943BE50A64809480400D7513E9
:1008A00030751420E4F50AF50B8089120BBA20B6D6
:1008B00003020A4A02095220B32AE50B150B700203
:1008C000150AC3E50A64809480500EE4F50AF50B1E
:1008D000751330751430020831120BBA20B60302BA
:1008E0000A4A806E20B436050DE50D7002050CD362
:1008F000943BE50C64809480400E7516307517208B
:10090000E4F50CF50D02088B7B007A007916AF0D2B
:10091000AE0C120BC420B603020A4A803520B53C47
:10092000E50D150D7002150CC3E50C648094805024
:100930000EE4F50CF50D7516307517300208317B95
:10094000007A007916AF0DAE0C120BC420B603026C
:100950000A4A7F017E00120CF6020A4AC29030B6A3
:040960000302083155
:10096400E4F519F51A20B709F519751A01D2908022
:1009740007E4F519F51AC290D3E50D9400E50C646B
:10098400809480400DE50D150D7002150C120CF2CB
:100994008067E50D450C7020D3E50B9400E50A64EF
:1009A4008094804013120CF2E50B150B7002150AAB
:1009B400750C00750D3B8041E50B450A7020D3E5AD
:1009C400099400E508648094804013120CF2E50950
:1009D400150970021508750A00750B3B801BE509A3
:1009E40045087015E50B450A700FE50D450C7009B7
:1009F400E519451A24FFB39290C3E509940AE50862
:100A0400648094805003751120C3E50B940AE50AB1
:100A1400648094805003751420C3E50D940AE50C9A
:100A24006480948050037517207B007A007910AF9E
:100A340009AE08120BC4120BBA7B007A007916AF08
:060A44000DAE0C120BC404
:100A4A00120CAF7B007A007910120DF17D037F0141
:100A5A00120CB67F3A120DC67D047F01120CB67BCA
:100A6A00007A007913120DF17D067F01120CB67F10
:100A7A003A120DC67D077F01120CB67B007A007907
:100A8A0016120DF17D017F02120CB62090087BFF31
:100A9A007A0E799C80093090097BFF7A0E79A01230
:0B0AAA000DF130B60302083102095EB6
:03000000020EC429
:0C0EC400787FE4F6D8FD75812B02080051
:100AB500BB010689828A83E0225002E722BBFE023F
:090AC500E32289828A83E4932272
:100ACE00BB010CE58229F582E5833AF583E02250DD
:100ADE0006E92582F8E622BBFE06E92582F8E22227
:0D0AEE00E58229F582E5833AF583E4932241
:100AFB00BB010689828A83F0225002F722BBFE01DA
:020B0B00F322D3
:100B0D00F8BB010DE58229F582E5833AF583E8F01E
:100B1D00225006E92582C8F622BBFE05E92582C8CA
:020B2D00F222B2
:100B2F00C2D5EC30E709B2D5E4C39DFDE49CFCEEE1
:100B3F0030E715B2D5E4C39FFFE49EFE120B65C3E9
:100B4F00E49DFDE49CFC8003120B6530D507C3E4E4
:060B5F009FFFE49EFE2250
:100B6500BC000BBE0029EF8DF084FFADF022E4CC74
:100B7500F875F008EF2FFFEE33FEEC33FCEE9DEC3D
:100B8500984005FCEE9DFE0FD5F0E9E4CEFD22ED83
:100B9500F8F5F0EE8420D21CFEADF075F008EF2FCD
:100BA500FFED33FD4007985006D5F0F222C398FDBE
:050BB5000FD5F0EA225B
:00000001FF
